{
  "_format": "hh-sol-artifact-1",
  "contractName": "Database",
  "sourceName": "contracts/Database.sol",
  "abi": [
    {
      "inputs": [],
      "stateMutability": "nonpayable",
      "type": "constructor"
    },
    {
      "anonymous": false,
      "inputs": [
        {
          "indexed": true,
          "internalType": "address",
          "name": "newAdmin",
          "type": "address"
        }
      ],
      "name": "AdminAdded",
      "type": "event"
    },
    {
      "anonymous": false,
      "inputs": [
        {
          "indexed": true,
          "internalType": "address",
          "name": "admin",
          "type": "address"
        }
      ],
      "name": "AdminRemoved",
      "type": "event"
    },
    {
      "anonymous": false,
      "inputs": [],
      "name": "ContractPaused",
      "type": "event"
    },
    {
      "anonymous": false,
      "inputs": [],
      "name": "ContractUnpaused",
      "type": "event"
    },
    {
      "anonymous": false,
      "inputs": [
        {
          "indexed": true,
          "internalType": "address",
          "name": "member",
          "type": "address"
        }
      ],
      "name": "MemberDeactivated",
      "type": "event"
    },
    {
      "anonymous": false,
      "inputs": [
        {
          "indexed": true,
          "internalType": "address",
          "name": "member",
          "type": "address"
        }
      ],
      "name": "MemberDeleted",
      "type": "event"
    },
    {
      "anonymous": false,
      "inputs": [
        {
          "indexed": true,
          "internalType": "address",
          "name": "member",
          "type": "address"
        },
        {
          "indexed": false,
          "internalType": "string",
          "name": "name",
          "type": "string"
        },
        {
          "indexed": false,
          "internalType": "uint256",
          "name": "id",
          "type": "uint256"
        }
      ],
      "name": "MemberEnrolled",
      "type": "event"
    },
    {
      "anonymous": false,
      "inputs": [
        {
          "indexed": true,
          "internalType": "address",
          "name": "member",
          "type": "address"
        }
      ],
      "name": "MemberReactivated",
      "type": "event"
    },
    {
      "anonymous": false,
      "inputs": [
        {
          "indexed": true,
          "internalType": "address",
          "name": "member",
          "type": "address"
        },
        {
          "indexed": false,
          "internalType": "string",
          "name": "name",
          "type": "string"
        }
      ],
      "name": "MemberUpdated",
      "type": "event"
    },
    {
      "inputs": [
        {
          "internalType": "address",
          "name": "_newAdmin",
          "type": "address"
        }
      ],
      "name": "addAdmin",
      "outputs": [],
      "stateMutability": "nonpayable",
      "type": "function"
    },
    {
      "inputs": [
        {
          "internalType": "address",
          "name": "_member",
          "type": "address"
        },
        {
          "internalType": "string",
          "name": "_name",
          "type": "string"
        },
        {
          "internalType": "string",
          "name": "_email",
          "type": "string"
        },
        {
          "internalType": "string",
          "name": "_phoneNumber",
          "type": "string"
        },
        {
          "internalType": "string",
          "name": "_msg",
          "type": "string"
        }
      ],
      "name": "adminUpdateMemberInfo",
      "outputs": [],
      "stateMutability": "nonpayable",
      "type": "function"
    },
    {
      "inputs": [
        {
          "internalType": "address",
          "name": "",
          "type": "address"
        }
      ],
      "name": "admins",
      "outputs": [
        {
          "internalType": "bool",
          "name": "",
          "type": "bool"
        }
      ],
      "stateMutability": "view",
      "type": "function"
    },
    {
      "inputs": [
        {
          "internalType": "address",
          "name": "_member",
          "type": "address"
        }
      ],
      "name": "deactivateMember",
      "outputs": [],
      "stateMutability": "nonpayable",
      "type": "function"
    },
    {
      "inputs": [
        {
          "internalType": "string",
          "name": "_name",
          "type": "string"
        },
        {
          "internalType": "string",
          "name": "_email",
          "type": "string"
        },
        {
          "internalType": "string",
          "name": "_phone",
          "type": "string"
        },
        {
          "internalType": "string",
          "name": "_regno",
          "type": "string"
        },
        {
          "internalType": "string",
          "name": "_msg",
          "type": "string"
        }
      ],
      "name": "enroll",
      "outputs": [],
      "stateMutability": "nonpayable",
      "type": "function"
    },
    {
      "inputs": [],
      "name": "getActiveAddr",
      "outputs": [
        {
          "internalType": "address[]",
          "name": "",
          "type": "address[]"
        }
      ],
      "stateMutability": "view",
      "type": "function"
    },
    {
      "inputs": [],
      "name": "getActiveCount",
      "outputs": [
        {
          "internalType": "uint256",
          "name": "",
          "type": "uint256"
        }
      ],
      "stateMutability": "view",
      "type": "function"
    },
    {
      "inputs": [],
      "name": "getActiveMembers",
      "outputs": [
        {
          "components": [
            {
              "internalType": "uint256",
              "name": "id",
              "type": "uint256"
            },
            {
              "internalType": "address",
              "name": "walletAddress",
              "type": "address"
            },
            {
              "internalType": "string",
              "name": "name",
              "type": "string"
            },
            {
              "internalType": "string",
              "name": "regno",
              "type": "string"
            },
            {
              "internalType": "string",
              "name": "email",
              "type": "string"
            },
            {
              "internalType": "string",
              "name": "phone",
              "type": "string"
            },
            {
              "internalType": "string",
              "name": "message",
              "type": "string"
            },
            {
              "internalType": "uint256",
              "name": "enrollmentTime",
              "type": "uint256"
            },
            {
              "internalType": "bool",
              "name": "isActive",
              "type": "bool"
            }
          ],
          "internalType": "struct Database.Member[]",
          "name": "",
          "type": "tuple[]"
        }
      ],
      "stateMutability": "view",
      "type": "function"
    },
    {
      "inputs": [],
      "name": "getAllAddr",
      "outputs": [
        {
          "internalType": "address[]",
          "name": "",
          "type": "address[]"
        }
      ],
      "stateMutability": "view",
      "type": "function"
    },
    {
      "inputs": [],
      "name": "getAllMembers",
      "outputs": [
        {
          "components": [
            {
              "internalType": "uint256",
              "name": "id",
              "type": "uint256"
            },
            {
              "internalType": "address",
              "name": "walletAddress",
              "type": "address"
            },
            {
              "internalType": "string",
              "name": "name",
              "type": "string"
            },
            {
              "internalType": "string",
              "name": "regno",
              "type": "string"
            },
            {
              "internalType": "string",
              "name": "email",
              "type": "string"
            },
            {
              "internalType": "string",
              "name": "phone",
              "type": "string"
            },
            {
              "internalType": "string",
              "name": "message",
              "type": "string"
            },
            {
              "internalType": "uint256",
              "name": "enrollmentTime",
              "type": "uint256"
            },
            {
              "internalType": "bool",
              "name": "isActive",
              "type": "bool"
            }
          ],
          "internalType": "struct Database.Member[]",
          "name": "",
          "type": "tuple[]"
        }
      ],
      "stateMutability": "view",
      "type": "function"
    },
    {
      "inputs": [],
      "name": "getMemberCount",
      "outputs": [
        {
          "internalType": "uint256",
          "name": "",
          "type": "uint256"
        }
      ],
      "stateMutability": "view",
      "type": "function"
    },
    {
      "inputs": [
        {
          "internalType": "address",
          "name": "_member",
          "type": "address"
        }
      ],
      "name": "getMemberInfo",
      "outputs": [
        {
          "components": [
            {
              "internalType": "uint256",
              "name": "id",
              "type": "uint256"
            },
            {
              "internalType": "address",
              "name": "walletAddress",
              "type": "address"
            },
            {
              "internalType": "string",
              "name": "name",
              "type": "string"
            },
            {
              "internalType": "string",
              "name": "regno",
              "type": "string"
            },
            {
              "internalType": "string",
              "name": "email",
              "type": "string"
            },
            {
              "internalType": "string",
              "name": "phone",
              "type": "string"
            },
            {
              "internalType": "string",
              "name": "message",
              "type": "string"
            },
            {
              "internalType": "uint256",
              "name": "enrollmentTime",
              "type": "uint256"
            },
            {
              "internalType": "bool",
              "name": "isActive",
              "type": "bool"
            }
          ],
          "internalType": "struct Database.Member",
          "name": "",
          "type": "tuple"
        }
      ],
      "stateMutability": "view",
      "type": "function"
    },
    {
      "inputs": [
        {
          "internalType": "address[]",
          "name": "_addresses",
          "type": "address[]"
        },
        {
          "internalType": "string[]",
          "name": "_names",
          "type": "string[]"
        },
        {
          "internalType": "string[]",
          "name": "_emails",
          "type": "string[]"
        },
        {
          "internalType": "string[]",
          "name": "_phones",
          "type": "string[]"
        },
        {
          "internalType": "string[]",
          "name": "_regnos",
          "type": "string[]"
        },
        {
          "internalType": "uint256[]",
          "name": "_timestamp",
          "type": "uint256[]"
        }
      ],
      "name": "importBulk",
      "outputs": [],
      "stateMutability": "nonpayable",
      "type": "function"
    },
    {
      "inputs": [
        {
          "internalType": "address",
          "name": "_address",
          "type": "address"
        },
        {
          "internalType": "string",
          "name": "_name",
          "type": "string"
        },
        {
          "internalType": "string",
          "name": "_email",
          "type": "string"
        },
        {
          "internalType": "string",
          "name": "_phone",
          "type": "string"
        },
        {
          "internalType": "string",
          "name": "_regno",
          "type": "string"
        },
        {
          "internalType": "uint256",
          "name": "_timestamp",
          "type": "uint256"
        }
      ],
      "name": "importOne",
      "outputs": [],
      "stateMutability": "nonpayable",
      "type": "function"
    },
    {
      "inputs": [
        {
          "internalType": "address",
          "name": "_address",
          "type": "address"
        }
      ],
      "name": "isEnrolled",
      "outputs": [
        {
          "internalType": "bool",
          "name": "",
          "type": "bool"
        }
      ],
      "stateMutability": "view",
      "type": "function"
    },
    {
      "inputs": [
        {
          "internalType": "uint256",
          "name": "",
          "type": "uint256"
        }
      ],
      "name": "memberList",
      "outputs": [
        {
          "internalType": "address",
          "name": "",
          "type": "address"
        }
      ],
      "stateMutability": "view",
      "type": "function"
    },
    {
      "inputs": [
        {
          "internalType": "address",
          "name": "",
          "type": "address"
        }
      ],
      "name": "members",
      "outputs": [
        {
          "internalType": "uint256",
          "name": "id",
          "type": "uint256"
        },
        {
          "internalType": "address",
          "name": "walletAddress",
          "type": "address"
        },
        {
          "internalType": "string",
          "name": "name",
          "type": "string"
        },
        {
          "internalType": "string",
          "name": "regno",
          "type": "string"
        },
        {
          "internalType": "string",
          "name": "email",
          "type": "string"
        },
        {
          "internalType": "string",
          "name": "phone",
          "type": "string"
        },
        {
          "internalType": "string",
          "name": "message",
          "type": "string"
        },
        {
          "internalType": "uint256",
          "name": "enrollmentTime",
          "type": "uint256"
        },
        {
          "internalType": "bool",
          "name": "isActive",
          "type": "bool"
        }
      ],
      "stateMutability": "view",
      "type": "function"
    },
    {
      "inputs": [],
      "name": "pause",
      "outputs": [],
      "stateMutability": "nonpayable",
      "type": "function"
    },
    {
      "inputs": [],
      "name": "paused",
      "outputs": [
        {
          "internalType": "bool",
          "name": "",
          "type": "bool"
        }
      ],
      "stateMutability": "view",
      "type": "function"
    },
    {
      "inputs": [
        {
          "internalType": "address",
          "name": "_member",
          "type": "address"
        }
      ],
      "name": "reactivateMember",
      "outputs": [],
      "stateMutability": "nonpayable",
      "type": "function"
    },
    {
      "inputs": [
        {
          "internalType": "address",
          "name": "_admin",
          "type": "address"
        }
      ],
      "name": "removeAdmin",
      "outputs": [],
      "stateMutability": "nonpayable",
      "type": "function"
    },
    {
      "inputs": [
        {
          "internalType": "address",
          "name": "_address",
          "type": "address"
        }
      ],
      "name": "removeMember",
      "outputs": [],
      "stateMutability": "nonpayable",
      "type": "function"
    },
    {
      "inputs": [],
      "name": "unpause",
      "outputs": [],
      "stateMutability": "nonpayable",
      "type": "function"
    },
    {
      "inputs": [
        {
          "internalType": "string",
          "name": "_name",
          "type": "string"
        },
        {
          "internalType": "string",
          "name": "_email",
          "type": "string"
        },
        {
          "internalType": "string",
          "name": "_phoneNumber",
          "type": "string"
        },
        {
          "internalType": "string",
          "name": "_msg",
          "type": "string"
        }
      ],
      "name": "updateMemberInfo",
      "outputs": [],
      "stateMutability": "nonpayable",
      "type": "function"
    }
  ],
  "bytecode": "0x608060405234801561001057600080fd5b506001600360003373ffffffffffffffffffffffffffffffffffffffff1673ffffffffffffffffffffffffffffffffffffffff16815260200190815260200160002060006101000a81548160ff021916908315150217905550600080819055506154318061007f6000396000f3fe608060405234801561001057600080fd5b50600436106101585760003560e01c806363338b17116100c3578063b307fc6d1161007c578063b307fc6d14610395578063b8209ca7146103c5578063c09ed8c1146103e1578063c5ac9a03146103fd578063d4f3476d1461041b578063d62d70b01461043757610158565b806363338b17146102e557806370480275146103035780637c0f6b351461031f5780638456cb591461033d57806394518fd814610347578063997072f71461037757610158565b80633f4ba83a116101155780633f4ba83a1461022357806341acec821461022d578063429b62e5146102495780634876aebc146102795780635c975abb146102975780635f1231ea146102b557610158565b806308ae4b0c1461015d5780630b1ca49a146101955780630d653ff2146101b15780630fd827a7146101cd5780631785f53c146101e9578063248663e914610205575b600080fd5b61017760048036038101906101729190613c2a565b610453565b60405161018c99989796959493929190613d2a565b60405180910390f35b6101af60048036038101906101aa9190613c2a565b610776565b005b6101cb60048036038101906101c69190613c2a565b610d00565b005b6101e760048036038101906101e29190613f0f565b610ebc565b005b61020360048036038101906101fe9190613c2a565b611373565b005b61020d61150b565b60405161021a91906140d4565b60405180910390f35b61022b611771565b005b6102476004803603810190610242919061438e565b611846565b005b610263600480360381019061025e9190613c2a565b611dd6565b60405161027091906144c3565b60405180910390f35b610281611df6565b60405161028e91906146e9565b60405180910390f35b61029f6123e1565b6040516102ac91906144c3565b60405180910390f35b6102cf60048036038101906102ca9190613c2a565b6123f4565b6040516102dc91906147ec565b60405180910390f35b6102ed61283c565b6040516102fa919061480e565b60405180910390f35b61031d60048036038101906103189190613c2a565b61290a565b005b610327612a34565b60405161033491906146e9565b60405180910390f35b610345612df3565b005b610361600480360381019061035c9190613c2a565b612ec8565b60405161036e91906144c3565b60405180910390f35b61037f612f21565b60405161038c919061480e565b60405180910390f35b6103af60048036038101906103aa9190614829565b612f2a565b6040516103bc9190614856565b60405180910390f35b6103df60048036038101906103da9190614871565b612f69565b005b6103fb60048036038101906103f6919061496e565b61338a565b005b61040561363a565b60405161041291906140d4565b60405180910390f35b61043560048036038101906104309190613c2a565b6136c8565b005b610451600480360381019061044c9190614a59565b613884565b005b60016020528060005260406000206000915090508060000154908060010160009054906101000a900473ffffffffffffffffffffffffffffffffffffffff16908060020180546104a290614b5f565b80601f01602080910402602001604051908101604052809291908181526020018280546104ce90614b5f565b801561051b5780601f106104f05761010080835404028352916020019161051b565b820191906000526020600020905b8154815290600101906020018083116104fe57829003601f168201915b50505050509080600301805461053090614b5f565b80601f016020809104026020016040519081016040528092919081815260200182805461055c90614b5f565b80156105a95780601f1061057e576101008083540402835291602001916105a9565b820191906000526020600020905b81548152906001019060200180831161058c57829003601f168201915b5050505050908060040180546105be90614b5f565b80601f01602080910402602001604051908101604052809291908181526020018280546105ea90614b5f565b80156106375780601f1061060c57610100808354040283529160200191610637565b820191906000526020600020905b81548152906001019060200180831161061a57829003601f168201915b50505050509080600501805461064c90614b5f565b80601f016020809104026020016040519081016040528092919081815260200182805461067890614b5f565b80156106c55780601f1061069a576101008083540402835291602001916106c5565b820191906000526020600020905b8154815290600101906020018083116106a857829003601f168201915b5050505050908060060180546106da90614b5f565b80601f016020809104026020016040519081016040528092919081815260200182805461070690614b5f565b80156107535780601f1061072857610100808354040283529160200191610753565b820191906000526020600020905b81548152906001019060200180831161073657829003601f168201915b5050505050908060070154908060080160009054906101000a900460ff16905089565b600460009054906101000a900460ff16156107c6576040517f08c379a00000000000000000000000000000000000000000000000000000000081526004016107bd90614bdc565b60405180910390fd5b600360003373ffffffffffffffffffffffffffffffffffffffff1673ffffffffffffffffffffffffffffffffffffffff16815260200190815260200160002060009054906101000a900460ff16610852576040517f08c379a000000000000000000000000000000000000000000000000000000000815260040161084990614c48565b60405180910390fd5b600160003373ffffffffffffffffffffffffffffffffffffffff1673ffffffffffffffffffffffffffffffffffffffff16815260200190815260200160002060080160009054906101000a900460ff166108e1576040517f08c379a00000000000000000000000000000000000000000000000000000000081526004016108d890614cb4565b60405180910390fd5b60005b600280549050811015610cb9578173ffffffffffffffffffffffffffffffffffffffff166002828154811061091c5761091b614cd4565b5b9060005260206000200160009054906101000a900473ffffffffffffffffffffffffffffffffffffffff1673ffffffffffffffffffffffffffffffffffffffff1603610cac5760008190505b600160028054905061097a9190614d32565b811015610b995760026001826109909190614d66565b815481106109a1576109a0614cd4565b5b9060005260206000200160009054906101000a900473ffffffffffffffffffffffffffffffffffffffff16600282815481106109e0576109df614cd4565b5b9060005260206000200160006101000a81548173ffffffffffffffffffffffffffffffffffffffff021916908373ffffffffffffffffffffffffffffffffffffffff1602179055506005600182610a379190614d66565b81548110610a4857610a47614cd4565b5b906000526020600020906009020160058281548110610a6a57610a69614cd4565b5b9060005260206000209060090201600082015481600001556001820160009054906101000a900473ffffffffffffffffffffffffffffffffffffffff168160010160006101000a81548173ffffffffffffffffffffffffffffffffffffffff021916908373ffffffffffffffffffffffffffffffffffffffff16021790555060028201816002019081610afd9190614f5c565b5060038201816003019081610b129190614f5c565b5060048201816004019081610b279190614f5c565b5060058201816005019081610b3c9190614f5c565b5060068201816006019081610b519190614f5c565b50600782015481600701556008820160009054906101000a900460ff168160080160006101000a81548160ff0219169083151502179055509050508080600101915050610968565b506002805480610bac57610bab615044565b5b6001900381819060005260206000200160006101000a81549073ffffffffffffffffffffffffffffffffffffffff021916905590556005805480610bf357610bf2615044565b5b60019003818190600052602060002090600902016000808201600090556001820160006101000a81549073ffffffffffffffffffffffffffffffffffffffff0219169055600282016000610c479190613af7565b600382016000610c579190613af7565b600482016000610c679190613af7565b600582016000610c779190613af7565b600682016000610c879190613af7565b60078201600090556008820160006101000a81549060ff021916905550509055610cb9565b80806001019150506108e4565b508073ffffffffffffffffffffffffffffffffffffffff167f83d8a881dfe94828d01f6c9dbe7cab20f8f0b9825eea51b679631302e700085160405160405180910390a250565b600360003373ffffffffffffffffffffffffffffffffffffffff1673ffffffffffffffffffffffffffffffffffffffff16815260200190815260200160002060009054906101000a900460ff16610d8c576040517f08c379a0000000000000000000000000000000000000000000000000000000008152600401610d8390614c48565b60405180910390fd5b600160008273ffffffffffffffffffffffffffffffffffffffff1673ffffffffffffffffffffffffffffffffffffffff16815260200190815260200160002060080160009054906101000a900460ff1615610e1c576040517f08c379a0000000000000000000000000000000000000000000000000000000008152600401610e13906150bf565b60405180910390fd5b60018060008373ffffffffffffffffffffffffffffffffffffffff1673ffffffffffffffffffffffffffffffffffffffff16815260200190815260200160002060080160006101000a81548160ff0219169083151502179055508073ffffffffffffffffffffffffffffffffffffffff167f545c52c18d68361107652fe08a819edb4023cb4ff3efaba75323dfdf6fbc588b60405160405180910390a250565b600460009054906101000a900460ff1615610f0c576040517f08c379a0000000000000000000000000000000000000000000000000000000008152600401610f0390614bdc565b60405180910390fd5b600160003373ffffffffffffffffffffffffffffffffffffffff1673ffffffffffffffffffffffffffffffffffffffff16815260200190815260200160002060080160009054906101000a900460ff1615610f9c576040517f08c379a0000000000000000000000000000000000000000000000000000000008152600401610f939061512b565b60405180910390fd5b600080815480929190610fae9061514b565b919050555060405180610120016040528060005481526020013373ffffffffffffffffffffffffffffffffffffffff16815260200186815260200183815260200185815260200184815260200182815260200142815260200160011515815250600160003373ffffffffffffffffffffffffffffffffffffffff1673ffffffffffffffffffffffffffffffffffffffff1681526020019081526020016000206000820151816000015560208201518160010160006101000a81548173ffffffffffffffffffffffffffffffffffffffff021916908373ffffffffffffffffffffffffffffffffffffffff16021790555060408201518160020190816110b39190615193565b5060608201518160030190816110c99190615193565b5060808201518160040190816110df9190615193565b5060a08201518160050190816110f59190615193565b5060c082015181600601908161110b9190615193565b5060e082015181600701556101008201518160080160006101000a81548160ff0219169083151502179055509050506002339080600181540180825580915050600190039060005260206000200160009091909190916101000a81548173ffffffffffffffffffffffffffffffffffffffff021916908373ffffffffffffffffffffffffffffffffffffffff1602179055506005600160003373ffffffffffffffffffffffffffffffffffffffff1673ffffffffffffffffffffffffffffffffffffffff1681526020019081526020016000209080600181540180825580915050600190039060005260206000209060090201600090919091909150600082015481600001556001820160009054906101000a900473ffffffffffffffffffffffffffffffffffffffff168160010160006101000a81548173ffffffffffffffffffffffffffffffffffffffff021916908373ffffffffffffffffffffffffffffffffffffffff1602179055506002820181600201908161128c9190614f5c565b50600382018160030190816112a19190614f5c565b50600482018160040190816112b69190614f5c565b50600582018160050190816112cb9190614f5c565b50600682018160060190816112e09190614f5c565b50600782015481600701556008820160009054906101000a900460ff168160080160006101000a81548160ff02191690831515021790555050503373ffffffffffffffffffffffffffffffffffffffff167fdb5e0603491ab5cb0420db6c0699971d3b7aec227502a7bbf79da01b2f3782c286600054604051611364929190615265565b60405180910390a25050505050565b600360003373ffffffffffffffffffffffffffffffffffffffff1673ffffffffffffffffffffffffffffffffffffffff16815260200190815260200160002060009054906101000a900460ff166113ff576040517f08c379a00000000000000000000000000000000000000000000000000000000081526004016113f690614c48565b60405180910390fd5b3373ffffffffffffffffffffffffffffffffffffffff168173ffffffffffffffffffffffffffffffffffffffff160361146d576040517f08c379a0000000000000000000000000000000000000000000000000000000008152600401611464906152e1565b60405180910390fd5b6000600360008373ffffffffffffffffffffffffffffffffffffffff1673ffffffffffffffffffffffffffffffffffffffff16815260200190815260200160002060006101000a81548160ff0219169083151502179055508073ffffffffffffffffffffffffffffffffffffffff167fa3b62bc36326052d97ea62d63c3d60308ed4c3ea8ac079dd8499f1e9c4f80c0f60405160405180910390a250565b60606000805b6002805490508110156115cd57600160006002838154811061153657611535614cd4565b5b9060005260206000200160009054906101000a900473ffffffffffffffffffffffffffffffffffffffff1673ffffffffffffffffffffffffffffffffffffffff1673ffffffffffffffffffffffffffffffffffffffff16815260200190815260200160002060080160009054906101000a900460ff16156115c05781806115bc9061514b565b9250505b8080600101915050611511565b5060008167ffffffffffffffff8111156115ea576115e9613de4565b5b6040519080825280602002602001820160405280156116185781602001602082028036833780820191505090505b5090506000805b60028054905081101561176757600160006002838154811061164457611643614cd4565b5b9060005260206000200160009054906101000a900473ffffffffffffffffffffffffffffffffffffffff1673ffffffffffffffffffffffffffffffffffffffff1673ffffffffffffffffffffffffffffffffffffffff16815260200190815260200160002060080160009054906101000a900460ff161561175a57600281815481106116d3576116d2614cd4565b5b9060005260206000200160009054906101000a900473ffffffffffffffffffffffffffffffffffffffff1683838151811061171157611710614cd4565b5b602002602001019073ffffffffffffffffffffffffffffffffffffffff16908173ffffffffffffffffffffffffffffffffffffffff168152505081806117569061514b565b9250505b808060010191505061161f565b5081935050505090565b600360003373ffffffffffffffffffffffffffffffffffffffff1673ffffffffffffffffffffffffffffffffffffffff16815260200190815260200160002060009054906101000a900460ff166117fd576040517f08c379a00000000000000000000000000000000000000000000000000000000081526004016117f490614c48565b60405180910390fd5b6000600460006101000a81548160ff0219169083151502179055507f0e5e3b3fb504c22cf5c42fa07d521225937514c654007e1f12646f89768d6f9460405160405180910390a1565b600360003373ffffffffffffffffffffffffffffffffffffffff1673ffffffffffffffffffffffffffffffffffffffff16815260200190815260200160002060009054906101000a900460ff166118d2576040517f08c379a00000000000000000000000000000000000000000000000000000000081526004016118c990614c48565b60405180910390fd5b845186511480156118e4575083518551145b80156118f1575082518451145b80156118fe575081518351145b61193d576040517f08c379a00000000000000000000000000000000000000000000000000000000081526004016119349061534d565b60405180910390fd5b60005b8651811015611dcd5760008081548092919061195b9061514b565b9190505550604051806101200160405280600054815260200188838151811061198757611986614cd4565b5b602002602001015173ffffffffffffffffffffffffffffffffffffffff1681526020018783815181106119bd576119bc614cd4565b5b602002602001015181526020018483815181106119dd576119dc614cd4565b5b602002602001015181526020018683815181106119fd576119fc614cd4565b5b60200260200101518152602001858381518110611a1d57611a1c614cd4565b5b60200260200101518152602001604051806020016040528060008152508152602001838381518110611a5257611a51614cd4565b5b602002602001015181526020016001151581525060016000898481518110611a7d57611a7c614cd4565b5b602002602001015173ffffffffffffffffffffffffffffffffffffffff1673ffffffffffffffffffffffffffffffffffffffff1681526020019081526020016000206000820151816000015560208201518160010160006101000a81548173ffffffffffffffffffffffffffffffffffffffff021916908373ffffffffffffffffffffffffffffffffffffffff1602179055506040820151816002019081611b259190615193565b506060820151816003019081611b3b9190615193565b506080820151816004019081611b519190615193565b5060a0820151816005019081611b679190615193565b5060c0820151816006019081611b7d9190615193565b5060e082015181600701556101008201518160080160006101000a81548160ff0219169083151502179055509050506002878281518110611bc157611bc0614cd4565b5b60200260200101519080600181540180825580915050600190039060005260206000200160009091909190916101000a81548173ffffffffffffffffffffffffffffffffffffffff021916908373ffffffffffffffffffffffffffffffffffffffff160217905550600560016000898481518110611c4257611c41614cd4565b5b602002602001015173ffffffffffffffffffffffffffffffffffffffff1673ffffffffffffffffffffffffffffffffffffffff1681526020019081526020016000209080600181540180825580915050600190039060005260206000209060090201600090919091909150600082015481600001556001820160009054906101000a900473ffffffffffffffffffffffffffffffffffffffff168160010160006101000a81548173ffffffffffffffffffffffffffffffffffffffff021916908373ffffffffffffffffffffffffffffffffffffffff16021790555060028201816002019081611d329190614f5c565b5060038201816003019081611d479190614f5c565b5060048201816004019081611d5c9190614f5c565b5060058201816005019081611d719190614f5c565b5060068201816006019081611d869190614f5c565b50600782015481600701556008820160009054906101000a900460ff168160080160006101000a81548160ff02191690831515021790555050508080600101915050611940565b50505050505050565b60036020528060005260406000206000915054906101000a900460ff1681565b60606000805b600280549050811015611eb8576001600060028381548110611e2157611e20614cd4565b5b9060005260206000200160009054906101000a900473ffffffffffffffffffffffffffffffffffffffff1673ffffffffffffffffffffffffffffffffffffffff1673ffffffffffffffffffffffffffffffffffffffff16815260200190815260200160002060080160009054906101000a900460ff1615611eab578180611ea79061514b565b9250505b8080600101915050611dfc565b5060008167ffffffffffffffff811115611ed557611ed4613de4565b5b604051908082528060200260200182016040528015611f0e57816020015b611efb613b37565b815260200190600190039081611ef35790505b5090506000805b6002805490508110156123d7576001600060028381548110611f3a57611f39614cd4565b5b9060005260206000200160009054906101000a900473ffffffffffffffffffffffffffffffffffffffff1673ffffffffffffffffffffffffffffffffffffffff1673ffffffffffffffffffffffffffffffffffffffff16815260200190815260200160002060080160009054906101000a900460ff16156123ca576001600060028381548110611fcd57611fcc614cd4565b5b9060005260206000200160009054906101000a900473ffffffffffffffffffffffffffffffffffffffff1673ffffffffffffffffffffffffffffffffffffffff1673ffffffffffffffffffffffffffffffffffffffff16815260200190815260200160002060405180610120016040529081600082015481526020016001820160009054906101000a900473ffffffffffffffffffffffffffffffffffffffff1673ffffffffffffffffffffffffffffffffffffffff1673ffffffffffffffffffffffffffffffffffffffff1681526020016002820180546120ae90614b5f565b80601f01602080910402602001604051908101604052809291908181526020018280546120da90614b5f565b80156121275780601f106120fc57610100808354040283529160200191612127565b820191906000526020600020905b81548152906001019060200180831161210a57829003601f168201915b5050505050815260200160038201805461214090614b5f565b80601f016020809104026020016040519081016040528092919081815260200182805461216c90614b5f565b80156121b95780601f1061218e576101008083540402835291602001916121b9565b820191906000526020600020905b81548152906001019060200180831161219c57829003601f168201915b505050505081526020016004820180546121d290614b5f565b80601f01602080910402602001604051908101604052809291908181526020018280546121fe90614b5f565b801561224b5780601f106122205761010080835404028352916020019161224b565b820191906000526020600020905b81548152906001019060200180831161222e57829003601f168201915b5050505050815260200160058201805461226490614b5f565b80601f016020809104026020016040519081016040528092919081815260200182805461229090614b5f565b80156122dd5780601f106122b2576101008083540402835291602001916122dd565b820191906000526020600020905b8154815290600101906020018083116122c057829003601f168201915b505050505081526020016006820180546122f690614b5f565b80601f016020809104026020016040519081016040528092919081815260200182805461232290614b5f565b801561236f5780601f106123445761010080835404028352916020019161236f565b820191906000526020600020905b81548152906001019060200180831161235257829003601f168201915b50505050508152602001600782015481526020016008820160009054906101000a900460ff1615151515815250508382815181106123b0576123af614cd4565b5b602002602001018190525081806123c69061514b565b9250505b8080600101915050611f15565b5081935050505090565b600460009054906101000a900460ff1681565b6123fc613b37565b600160008373ffffffffffffffffffffffffffffffffffffffff1673ffffffffffffffffffffffffffffffffffffffff16815260200190815260200160002060080160009054906101000a900460ff1661248b576040517f08c379a0000000000000000000000000000000000000000000000000000000008152600401612482906153b9565b60405180910390fd5b600160008373ffffffffffffffffffffffffffffffffffffffff1673ffffffffffffffffffffffffffffffffffffffff16815260200190815260200160002060405180610120016040529081600082015481526020016001820160009054906101000a900473ffffffffffffffffffffffffffffffffffffffff1673ffffffffffffffffffffffffffffffffffffffff1673ffffffffffffffffffffffffffffffffffffffff16815260200160028201805461254690614b5f565b80601f016020809104026020016040519081016040528092919081815260200182805461257290614b5f565b80156125bf5780601f10612594576101008083540402835291602001916125bf565b820191906000526020600020905b8154815290600101906020018083116125a257829003601f168201915b505050505081526020016003820180546125d890614b5f565b80601f016020809104026020016040519081016040528092919081815260200182805461260490614b5f565b80156126515780601f1061262657610100808354040283529160200191612651565b820191906000526020600020905b81548152906001019060200180831161263457829003601f168201915b5050505050815260200160048201805461266a90614b5f565b80601f016020809104026020016040519081016040528092919081815260200182805461269690614b5f565b80156126e35780601f106126b8576101008083540402835291602001916126e3565b820191906000526020600020905b8154815290600101906020018083116126c657829003601f168201915b505050505081526020016005820180546126fc90614b5f565b80601f016020809104026020016040519081016040528092919081815260200182805461272890614b5f565b80156127755780601f1061274a57610100808354040283529160200191612775565b820191906000526020600020905b81548152906001019060200180831161275857829003601f168201915b5050505050815260200160068201805461278e90614b5f565b80601f01602080910402602001604051908101604052809291908181526020018280546127ba90614b5f565b80156128075780601f106127dc57610100808354040283529160200191612807565b820191906000526020600020905b8154815290600101906020018083116127ea57829003601f168201915b50505050508152602001600782015481526020016008820160009054906101000a900460ff1615151515815250509050919050565b6000806000905060005b60028054905081101561290257600160006002838154811061286b5761286a614cd4565b5b9060005260206000200160009054906101000a900473ffffffffffffffffffffffffffffffffffffffff1673ffffffffffffffffffffffffffffffffffffffff1673ffffffffffffffffffffffffffffffffffffffff16815260200190815260200160002060080160009054906101000a900460ff16156128f55781806128f19061514b565b9250505b8080600101915050612846565b508091505090565b600360003373ffffffffffffffffffffffffffffffffffffffff1673ffffffffffffffffffffffffffffffffffffffff16815260200190815260200160002060009054906101000a900460ff16612996576040517f08c379a000000000000000000000000000000000000000000000000000000000815260040161298d90614c48565b60405180910390fd5b6001600360008373ffffffffffffffffffffffffffffffffffffffff1673ffffffffffffffffffffffffffffffffffffffff16815260200190815260200160002060006101000a81548160ff0219169083151502179055508073ffffffffffffffffffffffffffffffffffffffff167f44d6d25963f097ad14f29f06854a01f575648a1ef82f30e562ccd3889717e33960405160405180910390a250565b60606005805480602002602001604051908101604052809291908181526020016000905b82821015612dea578382906000526020600020906009020160405180610120016040529081600082015481526020016001820160009054906101000a900473ffffffffffffffffffffffffffffffffffffffff1673ffffffffffffffffffffffffffffffffffffffff1673ffffffffffffffffffffffffffffffffffffffff168152602001600282018054612aec90614b5f565b80601f0160208091040260200160405190810160405280929190818152602001828054612b1890614b5f565b8015612b655780601f10612b3a57610100808354040283529160200191612b65565b820191906000526020600020905b815481529060010190602001808311612b4857829003601f168201915b50505050508152602001600382018054612b7e90614b5f565b80601f0160208091040260200160405190810160405280929190818152602001828054612baa90614b5f565b8015612bf75780601f10612bcc57610100808354040283529160200191612bf7565b820191906000526020600020905b815481529060010190602001808311612bda57829003601f168201915b50505050508152602001600482018054612c1090614b5f565b80601f0160208091040260200160405190810160405280929190818152602001828054612c3c90614b5f565b8015612c895780601f10612c5e57610100808354040283529160200191612c89565b820191906000526020600020905b815481529060010190602001808311612c6c57829003601f168201915b50505050508152602001600582018054612ca290614b5f565b80601f0160208091040260200160405190810160405280929190818152602001828054612cce90614b5f565b8015612d1b5780601f10612cf057610100808354040283529160200191612d1b565b820191906000526020600020905b815481529060010190602001808311612cfe57829003601f168201915b50505050508152602001600682018054612d3490614b5f565b80601f0160208091040260200160405190810160405280929190818152602001828054612d6090614b5f565b8015612dad5780601f10612d8257610100808354040283529160200191612dad565b820191906000526020600020905b815481529060010190602001808311612d9057829003601f168201915b50505050508152602001600782015481526020016008820160009054906101000a900460ff16151515158152505081526020019060010190612a58565b50505050905090565b600360003373ffffffffffffffffffffffffffffffffffffffff1673ffffffffffffffffffffffffffffffffffffffff16815260200190815260200160002060009054906101000a900460ff16612e7f576040517f08c379a0000000000000000000000000000000000000000000000000000000008152600401612e7690614c48565b60405180910390fd5b6001600460006101000a81548160ff0219169083151502179055507fab35696f06e428ebc5ceba8cd17f8fed287baf43440206d1943af1ee53e6d26760405160405180910390a1565b6000600160008373ffffffffffffffffffffffffffffffffffffffff1673ffffffffffffffffffffffffffffffffffffffff16815260200190815260200160002060080160009054906101000a900460ff169050919050565b60008054905090565b60028181548110612f3a57600080fd5b906000526020600020016000915054906101000a900473ffffffffffffffffffffffffffffffffffffffff1681565b600360003373ffffffffffffffffffffffffffffffffffffffff1673ffffffffffffffffffffffffffffffffffffffff16815260200190815260200160002060009054906101000a900460ff16612ff5576040517f08c379a0000000000000000000000000000000000000000000000000000000008152600401612fec90614c48565b60405180910390fd5b6000808154809291906130079061514b565b919050555060405180610120016040528060005481526020018773ffffffffffffffffffffffffffffffffffffffff16815260200186815260200183815260200185815260200184815260200160405180602001604052806000815250815260200182815260200160011515815250600160008873ffffffffffffffffffffffffffffffffffffffff1673ffffffffffffffffffffffffffffffffffffffff1681526020019081526020016000206000820151816000015560208201518160010160006101000a81548173ffffffffffffffffffffffffffffffffffffffff021916908373ffffffffffffffffffffffffffffffffffffffff160217905550604082015181600201908161311b9190615193565b5060608201518160030190816131319190615193565b5060808201518160040190816131479190615193565b5060a082015181600501908161315d9190615193565b5060c08201518160060190816131739190615193565b5060e082015181600701556101008201518160080160006101000a81548160ff0219169083151502179055509050506002869080600181540180825580915050600190039060005260206000200160009091909190916101000a81548173ffffffffffffffffffffffffffffffffffffffff021916908373ffffffffffffffffffffffffffffffffffffffff1602179055506005600160008873ffffffffffffffffffffffffffffffffffffffff1673ffffffffffffffffffffffffffffffffffffffff1681526020019081526020016000209080600181540180825580915050600190039060005260206000209060090201600090919091909150600082015481600001556001820160009054906101000a900473ffffffffffffffffffffffffffffffffffffffff168160010160006101000a81548173ffffffffffffffffffffffffffffffffffffffff021916908373ffffffffffffffffffffffffffffffffffffffff160217905550600282018160020190816132f49190614f5c565b50600382018160030190816133099190614f5c565b506004820181600401908161331e9190614f5c565b50600582018160050190816133339190614f5c565b50600682018160060190816133489190614f5c565b50600782015481600701556008820160009054906101000a900460ff168160080160006101000a81548160ff0219169083151502179055505050505050505050565b600360003373ffffffffffffffffffffffffffffffffffffffff1673ffffffffffffffffffffffffffffffffffffffff16815260200190815260200160002060009054906101000a900460ff16613416576040517f08c379a000000000000000000000000000000000000000000000000000000000815260040161340d90614c48565b60405180910390fd5b600160008673ffffffffffffffffffffffffffffffffffffffff1673ffffffffffffffffffffffffffffffffffffffff16815260200190815260200160002060080160009054906101000a900460ff166134a5576040517f08c379a000000000000000000000000000000000000000000000000000000000815260040161349c90614cb4565b60405180910390fd5b83600160008773ffffffffffffffffffffffffffffffffffffffff1673ffffffffffffffffffffffffffffffffffffffff16815260200190815260200160002060020190816134f49190615193565b5082600160008773ffffffffffffffffffffffffffffffffffffffff1673ffffffffffffffffffffffffffffffffffffffff16815260200190815260200160002060040190816135449190615193565b5081600160008773ffffffffffffffffffffffffffffffffffffffff1673ffffffffffffffffffffffffffffffffffffffff16815260200190815260200160002060050190816135949190615193565b5080600160008773ffffffffffffffffffffffffffffffffffffffff1673ffffffffffffffffffffffffffffffffffffffff16815260200190815260200160002060060190816135e49190615193565b508473ffffffffffffffffffffffffffffffffffffffff167fa3d0385f26934ea8ad465e035a8cfcd254473e3c14e7b3f4e8c54fe60913e1c98560405161362b91906153d9565b60405180910390a25050505050565b606060028054806020026020016040519081016040528092919081815260200182805480156136be57602002820191906000526020600020905b8160009054906101000a900473ffffffffffffffffffffffffffffffffffffffff1673ffffffffffffffffffffffffffffffffffffffff1681526020019060010190808311613674575b5050505050905090565b600360003373ffffffffffffffffffffffffffffffffffffffff1673ffffffffffffffffffffffffffffffffffffffff16815260200190815260200160002060009054906101000a900460ff16613754576040517f08c379a000000000000000000000000000000000000000000000000000000000815260040161374b90614c48565b60405180910390fd5b600160008273ffffffffffffffffffffffffffffffffffffffff1673ffffffffffffffffffffffffffffffffffffffff16815260200190815260200160002060080160009054906101000a900460ff166137e3576040517f08c379a00000000000000000000000000000000000000000000000000000000081526004016137da906153b9565b60405180910390fd5b6000600160008373ffffffffffffffffffffffffffffffffffffffff1673ffffffffffffffffffffffffffffffffffffffff16815260200190815260200160002060080160006101000a81548160ff0219169083151502179055508073ffffffffffffffffffffffffffffffffffffffff167fd09c98686577f18c498d909faf17eff8fa165d9f4e25dce055e78cf7fb95cc1d60405160405180910390a250565b600460009054906101000a900460ff16156138d4576040517f08c379a00000000000000000000000000000000000000000000000000000000081526004016138cb90614bdc565b60405180910390fd5b600160003373ffffffffffffffffffffffffffffffffffffffff1673ffffffffffffffffffffffffffffffffffffffff16815260200190815260200160002060080160009054906101000a900460ff16613963576040517f08c379a000000000000000000000000000000000000000000000000000000000815260040161395a90614cb4565b60405180910390fd5b83600160003373ffffffffffffffffffffffffffffffffffffffff1673ffffffffffffffffffffffffffffffffffffffff16815260200190815260200160002060020190816139b29190615193565b5082600160003373ffffffffffffffffffffffffffffffffffffffff1673ffffffffffffffffffffffffffffffffffffffff1681526020019081526020016000206004019081613a029190615193565b5081600160003373ffffffffffffffffffffffffffffffffffffffff1673ffffffffffffffffffffffffffffffffffffffff1681526020019081526020016000206005019081613a529190615193565b5080600160003373ffffffffffffffffffffffffffffffffffffffff1673ffffffffffffffffffffffffffffffffffffffff1681526020019081526020016000206006019081613aa29190615193565b503373ffffffffffffffffffffffffffffffffffffffff167fa3d0385f26934ea8ad465e035a8cfcd254473e3c14e7b3f4e8c54fe60913e1c985604051613ae991906153d9565b60405180910390a250505050565b508054613b0390614b5f565b6000825580601f10613b155750613b34565b601f016020900490600052602060002090810190613b339190613b9b565b5b50565b60405180610120016040528060008152602001600073ffffffffffffffffffffffffffffffffffffffff1681526020016060815260200160608152602001606081526020016060815260200160608152602001600081526020016000151581525090565b5b80821115613bb4576000816000905550600101613b9c565b5090565b6000604051905090565b600080fd5b600080fd5b600073ffffffffffffffffffffffffffffffffffffffff82169050919050565b6000613bf782613bcc565b9050919050565b613c0781613bec565b8114613c1257600080fd5b50565b600081359050613c2481613bfe565b92915050565b600060208284031215613c4057613c3f613bc2565b5b6000613c4e84828501613c15565b91505092915050565b6000819050919050565b613c6a81613c57565b82525050565b613c7981613bec565b82525050565b600081519050919050565b600082825260208201905092915050565b60005b83811015613cb9578082015181840152602081019050613c9e565b60008484015250505050565b6000601f19601f8301169050919050565b6000613ce182613c7f565b613ceb8185613c8a565b9350613cfb818560208601613c9b565b613d0481613cc5565b840191505092915050565b60008115159050919050565b613d2481613d0f565b82525050565b600061012082019050613d40600083018c613c61565b613d4d602083018b613c70565b8181036040830152613d5f818a613cd6565b90508181036060830152613d738189613cd6565b90508181036080830152613d878188613cd6565b905081810360a0830152613d9b8187613cd6565b905081810360c0830152613daf8186613cd6565b9050613dbe60e0830185613c61565b613dcc610100830184613d1b565b9a9950505050505050505050565b600080fd5b600080fd5b7f4e487b7100000000000000000000000000000000000000000000000000000000600052604160045260246000fd5b613e1c82613cc5565b810181811067ffffffffffffffff82111715613e3b57613e3a613de4565b5b80604052505050565b6000613e4e613bb8565b9050613e5a8282613e13565b919050565b600067ffffffffffffffff821115613e7a57613e79613de4565b5b613e8382613cc5565b9050602081019050919050565b82818337600083830152505050565b6000613eb2613ead84613e5f565b613e44565b905082815260208101848484011115613ece57613ecd613ddf565b5b613ed9848285613e90565b509392505050565b600082601f830112613ef657613ef5613dda565b5b8135613f06848260208601613e9f565b91505092915050565b600080600080600060a08688031215613f2b57613f2a613bc2565b5b600086013567ffffffffffffffff811115613f4957613f48613bc7565b5b613f5588828901613ee1565b955050602086013567ffffffffffffffff811115613f7657613f75613bc7565b5b613f8288828901613ee1565b945050604086013567ffffffffffffffff811115613fa357613fa2613bc7565b5b613faf88828901613ee1565b935050606086013567ffffffffffffffff811115613fd057613fcf613bc7565b5b613fdc88828901613ee1565b925050608086013567ffffffffffffffff811115613ffd57613ffc613bc7565b5b61400988828901613ee1565b9150509295509295909350565b600081519050919050565b600082825260208201905092915050565b6000819050602082019050919050565b61404b81613bec565b82525050565b600061405d8383614042565b60208301905092915050565b6000602082019050919050565b600061408182614016565b61408b8185614021565b935061409683614032565b8060005b838110156140c75781516140ae8882614051565b97506140b983614069565b92505060018101905061409a565b5085935050505092915050565b600060208201905081810360008301526140ee8184614076565b905092915050565b600067ffffffffffffffff82111561411157614110613de4565b5b602082029050602081019050919050565b600080fd5b600061413a614135846140f6565b613e44565b9050808382526020820190506020840283018581111561415d5761415c614122565b5b835b8181101561418657806141728882613c15565b84526020840193505060208101905061415f565b5050509392505050565b600082601f8301126141a5576141a4613dda565b5b81356141b5848260208601614127565b91505092915050565b600067ffffffffffffffff8211156141d9576141d8613de4565b5b602082029050602081019050919050565b60006141fd6141f8846141be565b613e44565b905080838252602082019050602084028301858111156142205761421f614122565b5b835b8181101561426757803567ffffffffffffffff81111561424557614244613dda565b5b8086016142528982613ee1565b85526020850194505050602081019050614222565b5050509392505050565b600082601f83011261428657614285613dda565b5b81356142968482602086016141ea565b91505092915050565b600067ffffffffffffffff8211156142ba576142b9613de4565b5b602082029050602081019050919050565b6142d481613c57565b81146142df57600080fd5b50565b6000813590506142f1816142cb565b92915050565b600061430a6143058461429f565b613e44565b9050808382526020820190506020840283018581111561432d5761432c614122565b5b835b81811015614356578061434288826142e2565b84526020840193505060208101905061432f565b5050509392505050565b600082601f83011261437557614374613dda565b5b81356143858482602086016142f7565b91505092915050565b60008060008060008060c087890312156143ab576143aa613bc2565b5b600087013567ffffffffffffffff8111156143c9576143c8613bc7565b5b6143d589828a01614190565b965050602087013567ffffffffffffffff8111156143f6576143f5613bc7565b5b61440289828a01614271565b955050604087013567ffffffffffffffff81111561442357614422613bc7565b5b61442f89828a01614271565b945050606087013567ffffffffffffffff8111156144505761444f613bc7565b5b61445c89828a01614271565b935050608087013567ffffffffffffffff81111561447d5761447c613bc7565b5b61448989828a01614271565b92505060a087013567ffffffffffffffff8111156144aa576144a9613bc7565b5b6144b689828a01614360565b9150509295509295509295565b60006020820190506144d86000830184613d1b565b92915050565b600081519050919050565b600082825260208201905092915050565b6000819050602082019050919050565b61451381613c57565b82525050565b600082825260208201905092915050565b600061453582613c7f565b61453f8185614519565b935061454f818560208601613c9b565b61455881613cc5565b840191505092915050565b61456c81613d0f565b82525050565b60006101208301600083015161458b600086018261450a565b50602083015161459e6020860182614042565b50604083015184820360408601526145b6828261452a565b915050606083015184820360608601526145d0828261452a565b915050608083015184820360808601526145ea828261452a565b91505060a083015184820360a0860152614604828261452a565b91505060c083015184820360c086015261461e828261452a565b91505060e083015161463360e086018261450a565b50610100830151614648610100860182614563565b508091505092915050565b600061465f8383614572565b905092915050565b6000602082019050919050565b600061467f826144de565b61468981856144e9565b93508360208202850161469b856144fa565b8060005b858110156146d757848403895281516146b88582614653565b94506146c383614667565b925060208a0199505060018101905061469f565b50829750879550505050505092915050565b600060208201905081810360008301526147038184614674565b905092915050565b600061012083016000830151614724600086018261450a565b5060208301516147376020860182614042565b506040830151848203604086015261474f828261452a565b91505060608301518482036060860152614769828261452a565b91505060808301518482036080860152614783828261452a565b91505060a083015184820360a086015261479d828261452a565b91505060c083015184820360c08601526147b7828261452a565b91505060e08301516147cc60e086018261450a565b506101008301516147e1610100860182614563565b508091505092915050565b60006020820190508181036000830152614806818461470b565b905092915050565b60006020820190506148236000830184613c61565b92915050565b60006020828403121561483f5761483e613bc2565b5b600061484d848285016142e2565b91505092915050565b600060208201905061486b6000830184613c70565b92915050565b60008060008060008060c0878903121561488e5761488d613bc2565b5b600061489c89828a01613c15565b965050602087013567ffffffffffffffff8111156148bd576148bc613bc7565b5b6148c989828a01613ee1565b955050604087013567ffffffffffffffff8111156148ea576148e9613bc7565b5b6148f689828a01613ee1565b945050606087013567ffffffffffffffff81111561491757614916613bc7565b5b61492389828a01613ee1565b935050608087013567ffffffffffffffff81111561494457614943613bc7565b5b61495089828a01613ee1565b92505060a061496189828a016142e2565b9150509295509295509295565b600080600080600060a0868803121561498a57614989613bc2565b5b600061499888828901613c15565b955050602086013567ffffffffffffffff8111156149b9576149b8613bc7565b5b6149c588828901613ee1565b945050604086013567ffffffffffffffff8111156149e6576149e5613bc7565b5b6149f288828901613ee1565b935050606086013567ffffffffffffffff811115614a1357614a12613bc7565b5b614a1f88828901613ee1565b925050608086013567ffffffffffffffff811115614a4057614a3f613bc7565b5b614a4c88828901613ee1565b9150509295509295909350565b60008060008060808587031215614a7357614a72613bc2565b5b600085013567ffffffffffffffff811115614a9157614a90613bc7565b5b614a9d87828801613ee1565b945050602085013567ffffffffffffffff811115614abe57614abd613bc7565b5b614aca87828801613ee1565b935050604085013567ffffffffffffffff811115614aeb57614aea613bc7565b5b614af787828801613ee1565b925050606085013567ffffffffffffffff811115614b1857614b17613bc7565b5b614b2487828801613ee1565b91505092959194509250565b7f4e487b7100000000000000000000000000000000000000000000000000000000600052602260045260246000fd5b60006002820490506001821680614b7757607f821691505b602082108103614b8a57614b89614b30565b5b50919050565b7f436f6e7472616374206973207061757365640000000000000000000000000000600082015250565b6000614bc6601283613c8a565b9150614bd182614b90565b602082019050919050565b60006020820190508181036000830152614bf581614bb9565b9050919050565b7f4e6f7420616e2061646d696e0000000000000000000000000000000000000000600082015250565b6000614c32600c83613c8a565b9150614c3d82614bfc565b602082019050919050565b60006020820190508181036000830152614c6181614c25565b9050919050565b7f4e6f7420656e726f6c6c65640000000000000000000000000000000000000000600082015250565b6000614c9e600c83613c8a565b9150614ca982614c68565b602082019050919050565b60006020820190508181036000830152614ccd81614c91565b9050919050565b7f4e487b7100000000000000000000000000000000000000000000000000000000600052603260045260246000fd5b7f4e487b7100000000000000000000000000000000000000000000000000000000600052601160045260246000fd5b6000614d3d82613c57565b9150614d4883613c57565b9250828203905081811115614d6057614d5f614d03565b5b92915050565b6000614d7182613c57565b9150614d7c83613c57565b9250828201905080821115614d9457614d93614d03565b5b92915050565b600081549050614da981614b5f565b9050919050565b60008190508160005260206000209050919050565b60006020601f8301049050919050565b600082821b905092915050565b600060088302614e127fffffffffffffffffffffffffffffffffffffffffffffffffffffffffffffffff82614dd5565b614e1c8683614dd5565b95508019841693508086168417925050509392505050565b6000819050919050565b6000614e59614e54614e4f84613c57565b614e34565b613c57565b9050919050565b6000819050919050565b614e7383614e3e565b614e87614e7f82614e60565b848454614de2565b825550505050565b600090565b614e9c614e8f565b614ea7818484614e6a565b505050565b5b81811015614ecb57614ec0600082614e94565b600181019050614ead565b5050565b601f821115614f1057614ee181614db0565b614eea84614dc5565b81016020851015614ef9578190505b614f0d614f0585614dc5565b830182614eac565b50505b505050565b600082821c905092915050565b6000614f3360001984600802614f15565b1980831691505092915050565b6000614f4c8383614f22565b9150826002028217905092915050565b818103614f6a575050615042565b614f7382614d9a565b67ffffffffffffffff811115614f8c57614f8b613de4565b5b614f968254614b5f565b614fa1828285614ecf565b6000601f831160018114614fd05760008415614fbe578287015490505b614fc88582614f40565b86555061503b565b601f198416614fde87614db0565b9650614fe986614db0565b60005b8281101561501157848901548255600182019150600185019450602081019050614fec565b8683101561502e578489015461502a601f891682614f22565b8355505b6001600288020188555050505b5050505050505b565b7f4e487b7100000000000000000000000000000000000000000000000000000000600052603160045260246000fd5b7f4d656d62657220616c7265616479206163746976650000000000000000000000600082015250565b60006150a9601583613c8a565b91506150b482615073565b602082019050919050565b600060208201905081810360008301526150d88161509c565b9050919050565b7f416c726561647920656e726f6c6c656400000000000000000000000000000000600082015250565b6000615115601083613c8a565b9150615120826150df565b602082019050919050565b6000602082019050818103600083015261514481615108565b9050919050565b600061515682613c57565b91507fffffffffffffffffffffffffffffffffffffffffffffffffffffffffffffffff820361518857615187614d03565b5b600182019050919050565b61519c82613c7f565b67ffffffffffffffff8111156151b5576151b4613de4565b5b6151bf8254614b5f565b6151ca828285614ecf565b600060209050601f8311600181146151fd57600084156151eb578287015190505b6151f58582614f40565b86555061525d565b601f19841661520b86614db0565b60005b828110156152335784890151825560018201915060208501945060208101905061520e565b86831015615250578489015161524c601f891682614f22565b8355505b6001600288020188555050505b505050505050565b6000604082019050818103600083015261527f8185613cd6565b905061528e6020830184613c61565b9392505050565b7f43616e6e6f742072656d6f76652073656c662061732061646d696e0000000000600082015250565b60006152cb601b83613c8a565b91506152d682615295565b602082019050919050565b600060208201905081810360008301526152fa816152be565b9050919050565b7f496e76616c696420696e70757400000000000000000000000000000000000000600082015250565b6000615337600d83613c8a565b915061534282615301565b602082019050919050565b600060208201905081810360008301526153668161532a565b9050919050565b7f4d656d626572206e6f7420616374697665000000000000000000000000000000600082015250565b60006153a3601183613c8a565b91506153ae8261536d565b602082019050919050565b600060208201905081810360008301526153d281615396565b9050919050565b600060208201905081810360008301526153f38184613cd6565b90509291505056fea26469706673582212202b983146ba4c5e89be8cf4388266c5a049c62eafb12eb83319d326f33ee125e464736f6c63430008180033",
  "linkReferences": {},
  "deployedLinkReferences": {}
}